{
  "contractName": "DelayInsurance",
  "abi": [
    {
      "inputs": [],
      "stateMutability": "nonpayable",
      "type": "constructor"
    },
    {
      "anonymous": false,
      "inputs": [
        {
          "indexed": true,
          "internalType": "uint256",
          "name": "claimId",
          "type": "uint256"
        }
      ],
      "name": "ClaimApproved",
      "type": "event"
    },
    {
      "anonymous": false,
      "inputs": [
        {
          "indexed": true,
          "internalType": "uint256",
          "name": "claimId",
          "type": "uint256"
        },
        {
          "indexed": false,
          "internalType": "string",
          "name": "reason",
          "type": "string"
        }
      ],
      "name": "ClaimRejected",
      "type": "event"
    },
    {
      "anonymous": false,
      "inputs": [
        {
          "indexed": true,
          "internalType": "uint256",
          "name": "claimId",
          "type": "uint256"
        },
        {
          "indexed": true,
          "internalType": "address",
          "name": "user",
          "type": "address"
        },
        {
          "indexed": false,
          "internalType": "uint256",
          "name": "amount",
          "type": "uint256"
        },
        {
          "indexed": false,
          "internalType": "string",
          "name": "ticketId",
          "type": "string"
        }
      ],
      "name": "ClaimSubmitted",
      "type": "event"
    },
    {
      "anonymous": false,
      "inputs": [
        {
          "indexed": true,
          "internalType": "address",
          "name": "user",
          "type": "address"
        },
        {
          "indexed": false,
          "internalType": "string",
          "name": "name",
          "type": "string"
        }
      ],
      "name": "UserRegistered",
      "type": "event"
    },
    {
      "inputs": [],
      "name": "admin",
      "outputs": [
        {
          "internalType": "address",
          "name": "",
          "type": "address"
        }
      ],
      "stateMutability": "view",
      "type": "function",
      "constant": true
    },
    {
      "inputs": [],
      "name": "claimCounter",
      "outputs": [
        {
          "internalType": "uint256",
          "name": "",
          "type": "uint256"
        }
      ],
      "stateMutability": "view",
      "type": "function",
      "constant": true
    },
    {
      "inputs": [
        {
          "internalType": "uint256",
          "name": "",
          "type": "uint256"
        }
      ],
      "name": "claims",
      "outputs": [
        {
          "internalType": "uint256",
          "name": "claimId",
          "type": "uint256"
        },
        {
          "internalType": "address",
          "name": "user",
          "type": "address"
        },
        {
          "internalType": "uint256",
          "name": "amount",
          "type": "uint256"
        },
        {
          "internalType": "bool",
          "name": "isPaid",
          "type": "bool"
        },
        {
          "internalType": "uint256",
          "name": "delayTime",
          "type": "uint256"
        },
        {
          "internalType": "string",
          "name": "status",
          "type": "string"
        },
        {
          "internalType": "string",
          "name": "ticketId",
          "type": "string"
        }
      ],
      "stateMutability": "view",
      "type": "function",
      "constant": true
    },
    {
      "inputs": [
        {
          "internalType": "address",
          "name": "",
          "type": "address"
        },
        {
          "internalType": "uint256",
          "name": "",
          "type": "uint256"
        }
      ],
      "name": "userClaims",
      "outputs": [
        {
          "internalType": "uint256",
          "name": "",
          "type": "uint256"
        }
      ],
      "stateMutability": "view",
      "type": "function",
      "constant": true
    },
    {
      "inputs": [
        {
          "internalType": "address",
          "name": "",
          "type": "address"
        }
      ],
      "name": "users",
      "outputs": [
        {
          "internalType": "string",
          "name": "name",
          "type": "string"
        },
        {
          "internalType": "address",
          "name": "wallet",
          "type": "address"
        }
      ],
      "stateMutability": "view",
      "type": "function",
      "constant": true
    },
    {
      "stateMutability": "payable",
      "type": "receive",
      "payable": true
    },
    {
      "inputs": [
        {
          "internalType": "string",
          "name": "_name",
          "type": "string"
        }
      ],
      "name": "registerUser",
      "outputs": [],
      "stateMutability": "nonpayable",
      "type": "function"
    },
    {
      "inputs": [
        {
          "internalType": "uint256",
          "name": "_amount",
          "type": "uint256"
        },
        {
          "internalType": "uint256",
          "name": "_delayTime",
          "type": "uint256"
        },
        {
          "internalType": "string",
          "name": "_ticketId",
          "type": "string"
        }
      ],
      "name": "submitClaim",
      "outputs": [],
      "stateMutability": "nonpayable",
      "type": "function"
    },
    {
      "inputs": [
        {
          "internalType": "uint256",
          "name": "_claimId",
          "type": "uint256"
        }
      ],
      "name": "approveClaim",
      "outputs": [],
      "stateMutability": "nonpayable",
      "type": "function"
    },
    {
      "inputs": [
        {
          "internalType": "uint256",
          "name": "_claimId",
          "type": "uint256"
        },
        {
          "internalType": "string",
          "name": "_reason",
          "type": "string"
        }
      ],
      "name": "rejectClaim",
      "outputs": [],
      "stateMutability": "nonpayable",
      "type": "function"
    },
    {
      "inputs": [
        {
          "internalType": "address",
          "name": "_user",
          "type": "address"
        }
      ],
      "name": "getUserClaims",
      "outputs": [
        {
          "internalType": "uint256[]",
          "name": "",
          "type": "uint256[]"
        }
      ],
      "stateMutability": "view",
      "type": "function",
      "constant": true
    },
    {
      "inputs": [],
      "name": "getAllClaimIds",
      "outputs": [
        {
          "internalType": "uint256[]",
          "name": "",
          "type": "uint256[]"
        }
      ],
      "stateMutability": "view",
      "type": "function",
      "constant": true
    },
    {
      "inputs": [],
      "name": "fundContract",
      "outputs": [],
      "stateMutability": "payable",
      "type": "function",
      "payable": true
    }
  ],
  "bytecode": "0x608060405234801561001057600080fd5b50336000806101000a81548173ffffffffffffffffffffffffffffffffffffffff021916908373ffffffffffffffffffffffffffffffffffffffff160217905550611c4e806100606000396000f3fe6080604052600436106100ab5760003560e01c80637bcb4a64116100645780637bcb4a64146101b1578063a87430ba146101ee578063a888c2cd1461022c578063bd097e211461026f578063ca9748ea14610279578063f851a440146102b6576100b2565b806306964de7146100b75780632abfd6da146100e05780633577a5ad1461010b57806346e30135146101345780634efa8f171461015d578063704f1b9414610188576100b2565b366100b257005b600080fd5b3480156100c357600080fd5b506100de60048036038101906100d9919061130c565b6102e1565b005b3480156100ec57600080fd5b506100f56106da565b6040516101029190611735565b60405180910390f35b34801561011757600080fd5b50610132600480360381019061012d91906112b8565b610732565b005b34801561014057600080fd5b5061015b6004803603810190610156919061128f565b6108f8565b005b34801561016957600080fd5b50610172610b3e565b60405161017f91906118a9565b60405180910390f35b34801561019457600080fd5b506101af60048036038101906101aa919061124e565b610b44565b005b3480156101bd57600080fd5b506101d860048036038101906101d391906111e9565b610d7b565b6040516101e59190611735565b60405180910390f35b3480156101fa57600080fd5b50610215600480360381019061021091906111e9565b610e12565b604051610223929190611779565b60405180910390f35b34801561023857600080fd5b50610253600480360381019061024e919061128f565b610ede565b60405161026697969594939291906118c4565b60405180910390f35b61027761105d565b005b34801561028557600080fd5b506102a0600480360381019061029b9190611212565b61105f565b6040516102ad91906118a9565b60405180910390f35b3480156102c257600080fd5b506102cb611090565b6040516102d8919061171a565b60405180910390f35b600073ffffffffffffffffffffffffffffffffffffffff16600160003373ffffffffffffffffffffffffffffffffffffffff1673ffffffffffffffffffffffffffffffffffffffff16815260200190815260200160002060010160009054906101000a900473ffffffffffffffffffffffffffffffffffffffff1673ffffffffffffffffffffffffffffffffffffffff1614156103b3576040517f08c379a00000000000000000000000000000000000000000000000000000000081526004016103aa906117e9565b60405180910390fd5b600083116103f6576040517f08c379a00000000000000000000000000000000000000000000000000000000081526004016103ed90611809565b60405180910390fd5b60008211610439576040517f08c379a000000000000000000000000000000000000000000000000000000000815260040161043090611849565b60405180910390fd5b600081511161047d576040517f08c379a0000000000000000000000000000000000000000000000000000000008152600401610474906117a9565b60405180910390fd5b6040518060e0016040528060045481526020013373ffffffffffffffffffffffffffffffffffffffff1681526020018481526020016000151581526020018381526020016040518060400160405280600781526020017f50656e64696e67000000000000000000000000000000000000000000000000008152508152602001828152506002600060045481526020019081526020016000206000820151816000015560208201518160010160006101000a81548173ffffffffffffffffffffffffffffffffffffffff021916908373ffffffffffffffffffffffffffffffffffffffff1602179055506040820151816002015560608201518160030160006101000a81548160ff0219169083151502179055506080820151816004015560a08201518160050190805190602001906105b69291906110b4565b5060c08201518160060190805190602001906105d39291906110b4565b50905050600360003373ffffffffffffffffffffffffffffffffffffffff1673ffffffffffffffffffffffffffffffffffffffff1681526020019081526020016000206004549080600181540180825580915050600190039060005260206000200160009091909190915055600560045490806001815401808255809150506001900390600052602060002001600090919091909150553373ffffffffffffffffffffffffffffffffffffffff166004547f95081ad7e72ba2e9a9457b1b8f0b632d020ea774fd5da576c1202d599041829485846040516106b5929190611941565b60405180910390a3600460008154809291906106d090611b03565b9190505550505050565b6060600580548060200260200160405190810160405280929190818152602001828054801561072857602002820191906000526020600020905b815481526020019060010190808311610714575b5050505050905090565b60008054906101000a900473ffffffffffffffffffffffffffffffffffffffff1673ffffffffffffffffffffffffffffffffffffffff163373ffffffffffffffffffffffffffffffffffffffff16146107c0576040517f08c379a00000000000000000000000000000000000000000000000000000000081526004016107b790611889565b60405180910390fd5b60006002600084815260200190815260200160002090506040518060400160405280600781526020017f50656e64696e670000000000000000000000000000000000000000000000000081525080519060200120816005016040516108259190611703565b60405180910390201461086d576040517f08c379a000000000000000000000000000000000000000000000000000000000815260040161086490611829565b60405180910390fd5b6040518060400160405280600881526020017f52656a65637465640000000000000000000000000000000000000000000000008152508160050190805190602001906108ba9291906110b4565b50827f43cc3d080e025c67c26d62b18bd442511dc9c76c8aa3f48cc0e8f456173e61f1836040516108eb9190611757565b60405180910390a2505050565b60008054906101000a900473ffffffffffffffffffffffffffffffffffffffff1673ffffffffffffffffffffffffffffffffffffffff163373ffffffffffffffffffffffffffffffffffffffff1614610986576040517f08c379a000000000000000000000000000000000000000000000000000000000815260040161097d90611889565b60405180910390fd5b60006002600083815260200190815260200160002090506040518060400160405280600781526020017f50656e64696e670000000000000000000000000000000000000000000000000081525080519060200120816005016040516109eb9190611703565b604051809103902014610a33576040517f08c379a0000000000000000000000000000000000000000000000000000000008152600401610a2a90611829565b60405180910390fd5b60018160030160006101000a81548160ff0219169083151502179055506040518060400160405280600881526020017f417070726f766564000000000000000000000000000000000000000000000000815250816005019080519060200190610a9d9291906110b4565b508060010160009054906101000a900473ffffffffffffffffffffffffffffffffffffffff1673ffffffffffffffffffffffffffffffffffffffff166108fc82600201549081150290604051600060405180830381858888f19350505050158015610b0c573d6000803e3d6000fd5b50817fd2d0ed0cccc8615643ade1eff3929a29ed8df75ebca85a3996e311c9b69e228960405160405180910390a25050565b60045481565b6000815111610b88576040517f08c379a0000000000000000000000000000000000000000000000000000000008152600401610b7f906117c9565b60405180910390fd5b600073ffffffffffffffffffffffffffffffffffffffff16600160003373ffffffffffffffffffffffffffffffffffffffff1673ffffffffffffffffffffffffffffffffffffffff16815260200190815260200160002060010160009054906101000a900473ffffffffffffffffffffffffffffffffffffffff1673ffffffffffffffffffffffffffffffffffffffff1614610c59576040517f08c379a0000000000000000000000000000000000000000000000000000000008152600401610c5090611869565b60405180910390fd5b60405180604001604052808281526020013373ffffffffffffffffffffffffffffffffffffffff16815250600160003373ffffffffffffffffffffffffffffffffffffffff1673ffffffffffffffffffffffffffffffffffffffff1681526020019081526020016000206000820151816000019080519060200190610cdf9291906110b4565b5060208201518160010160006101000a81548173ffffffffffffffffffffffffffffffffffffffff021916908373ffffffffffffffffffffffffffffffffffffffff1602179055509050503373ffffffffffffffffffffffffffffffffffffffff167f48cac28ad4dc618e15f4c2dd5e97751182f166de97b25618318b2112aa951a2f82604051610d709190611757565b60405180910390a250565b6060600360008373ffffffffffffffffffffffffffffffffffffffff1673ffffffffffffffffffffffffffffffffffffffff168152602001908152602001600020805480602002602001604051908101604052809291908181526020018280548015610e0657602002820191906000526020600020905b815481526020019060010190808311610df2575b50505050509050919050565b6001602052806000526040600020600091509050806000018054610e3590611ad1565b80601f0160208091040260200160405190810160405280929190818152602001828054610e6190611ad1565b8015610eae5780601f10610e8357610100808354040283529160200191610eae565b820191906000526020600020905b815481529060010190602001808311610e9157829003601f168201915b5050505050908060010160009054906101000a900473ffffffffffffffffffffffffffffffffffffffff16905082565b60026020528060005260406000206000915090508060000154908060010160009054906101000a900473ffffffffffffffffffffffffffffffffffffffff16908060020154908060030160009054906101000a900460ff1690806004015490806005018054610f4c90611ad1565b80601f0160208091040260200160405190810160405280929190818152602001828054610f7890611ad1565b8015610fc55780601f10610f9a57610100808354040283529160200191610fc5565b820191906000526020600020905b815481529060010190602001808311610fa857829003601f168201915b505050505090806006018054610fda90611ad1565b80601f016020809104026020016040519081016040528092919081815260200182805461100690611ad1565b80156110535780601f1061102857610100808354040283529160200191611053565b820191906000526020600020905b81548152906001019060200180831161103657829003601f168201915b5050505050905087565b565b6003602052816000526040600020818154811061107b57600080fd5b90600052602060002001600091509150505481565b60008054906101000a900473ffffffffffffffffffffffffffffffffffffffff1681565b8280546110c090611ad1565b90600052602060002090601f0160209004810192826110e25760008555611129565b82601f106110fb57805160ff1916838001178555611129565b82800160010185558215611129579182015b8281111561112857825182559160200191906001019061110d565b5b509050611136919061113a565b5090565b5b8082111561115357600081600090555060010161113b565b5090565b600061116a611165846119a2565b611971565b90508281526020810184848401111561118257600080fd5b61118d848285611a8f565b509392505050565b6000813590506111a481611bea565b92915050565b600082601f8301126111bb57600080fd5b81356111cb848260208601611157565b91505092915050565b6000813590506111e381611c01565b92915050565b6000602082840312156111fb57600080fd5b600061120984828501611195565b91505092915050565b6000806040838503121561122557600080fd5b600061123385828601611195565b9250506020611244858286016111d4565b9150509250929050565b60006020828403121561126057600080fd5b600082013567ffffffffffffffff81111561127a57600080fd5b611286848285016111aa565b91505092915050565b6000602082840312156112a157600080fd5b60006112af848285016111d4565b91505092915050565b600080604083850312156112cb57600080fd5b60006112d9858286016111d4565b925050602083013567ffffffffffffffff8111156112f657600080fd5b611302858286016111aa565b9150509250929050565b60008060006060848603121561132157600080fd5b600061132f868287016111d4565b9350506020611340868287016111d4565b925050604084013567ffffffffffffffff81111561135d57600080fd5b611369868287016111aa565b9150509250925092565b600061137f83836116e5565b60208301905092915050565b61139481611a47565b82525050565b60006113a5826119f7565b6113af8185611a1a565b93506113ba836119d2565b8060005b838110156113eb5781516113d28882611373565b97506113dd83611a0d565b9250506001810190506113be565b5085935050505092915050565b61140181611a59565b82525050565b6000815461141481611ad1565b61141e8186611a2b565b94506001821660008114611439576001811461144a5761147d565b60ff1983168652818601935061147d565b611453856119e2565b60005b8381101561147557815481890152600182019150602081019050611456565b838801955050505b50505092915050565b600061149182611a02565b61149b8185611a36565b93506114ab818560208601611a9e565b6114b481611bd9565b840191505092915050565b60006114cc601183611a36565b91507f496e76616c6964207469636b65742049440000000000000000000000000000006000830152602082019050919050565b600061150c600c83611a36565b91507f496e76616c6964206e616d6500000000000000000000000000000000000000006000830152602082019050919050565b600061154c601383611a36565b91507f55736572206e6f742072656769737465726564000000000000000000000000006000830152602082019050919050565b600061158c600e83611a36565b91507f496e76616c696420616d6f756e740000000000000000000000000000000000006000830152602082019050919050565b60006115cc601783611a36565b91507f436c61696d20616c72656164792070726f6365737365640000000000000000006000830152602082019050919050565b600061160c601283611a36565b91507f496e76616c69642064656c61792074696d6500000000000000000000000000006000830152602082019050919050565b600061164c601783611a36565b91507f5573657220616c726561647920726567697374657265640000000000000000006000830152602082019050919050565b600061168c602283611a36565b91507f4f6e6c792061646d696e2063616e20706572666f726d2074686973206163746960008301527f6f6e0000000000000000000000000000000000000000000000000000000000006020830152604082019050919050565b6116ee81611a85565b82525050565b6116fd81611a85565b82525050565b600061170f8284611407565b915081905092915050565b600060208201905061172f600083018461138b565b92915050565b6000602082019050818103600083015261174f818461139a565b905092915050565b600060208201905081810360008301526117718184611486565b905092915050565b600060408201905081810360008301526117938185611486565b90506117a2602083018461138b565b9392505050565b600060208201905081810360008301526117c2816114bf565b9050919050565b600060208201905081810360008301526117e2816114ff565b9050919050565b600060208201905081810360008301526118028161153f565b9050919050565b600060208201905081810360008301526118228161157f565b9050919050565b60006020820190508181036000830152611842816115bf565b9050919050565b60006020820190508181036000830152611862816115ff565b9050919050565b600060208201905081810360008301526118828161163f565b9050919050565b600060208201905081810360008301526118a28161167f565b9050919050565b60006020820190506118be60008301846116f4565b92915050565b600060e0820190506118d9600083018a6116f4565b6118e6602083018961138b565b6118f360408301886116f4565b61190060608301876113f8565b61190d60808301866116f4565b81810360a083015261191f8185611486565b905081810360c08301526119338184611486565b905098975050505050505050565b600060408201905061195660008301856116f4565b81810360208301526119688184611486565b90509392505050565b6000604051905081810181811067ffffffffffffffff8211171561199857611997611baa565b5b8060405250919050565b600067ffffffffffffffff8211156119bd576119bc611baa565b5b601f19601f8301169050602081019050919050565b6000819050602082019050919050565b60008190508160005260206000209050919050565b600081519050919050565b600081519050919050565b6000602082019050919050565b600082825260208201905092915050565b600081905092915050565b600082825260208201905092915050565b6000611a5282611a65565b9050919050565b60008115159050919050565b600073ffffffffffffffffffffffffffffffffffffffff82169050919050565b6000819050919050565b82818337600083830152505050565b60005b83811015611abc578082015181840152602081019050611aa1565b83811115611acb576000848401525b50505050565b60006002820490506001821680611ae957607f821691505b60208210811415611afd57611afc611b7b565b5b50919050565b6000611b0e82611a85565b91507fffffffffffffffffffffffffffffffffffffffffffffffffffffffffffffffff821415611b4157611b40611b4c565b5b600182019050919050565b7f4e487b7100000000000000000000000000000000000000000000000000000000600052601160045260246000fd5b7f4e487b7100000000000000000000000000000000000000000000000000000000600052602260045260246000fd5b7f4e487b7100000000000000000000000000000000000000000000000000000000600052604160045260246000fd5b6000601f19601f8301169050919050565b611bf381611a47565b8114611bfe57600080fd5b50565b611c0a81611a85565b8114611c1557600080fd5b5056fea2646970667358221220f5640e07269350f0cb431f07a485c13989445ed34eed9e1d9940b8c897c4ff7064736f6c63430008000033",
  "immutableReferences": {},
  "source": "// SPDX-License-Identifier: MIT\r\npragma solidity ^0.8.0;\r\n\r\ncontract DelayInsurance {\r\n    struct Claim {\r\n        uint256 claimId;\r\n        address user;\r\n        uint256 amount;\r\n        bool isPaid;\r\n        uint256 delayTime;\r\n        string status; // \"Pending\", \"Approved\", \"Rejected\"\r\n        string ticketId; // User-provided ticket ID\r\n    }\r\n\r\n    struct User {\r\n        string name;\r\n        address wallet;\r\n    }\r\n\r\n    address public admin; // Admin address\r\n    mapping(address => User) public users;\r\n    mapping(uint256 => Claim) public claims;\r\n    mapping(address => uint256[]) public userClaims;\r\n\r\n    uint256 public claimCounter;\r\n    uint256[] private claimIds; // Array to store all claim IDs\r\n\r\n    modifier onlyAdmin() {\r\n        require(msg.sender == admin, \"Only admin can perform this action\");\r\n        _;\r\n    }\r\n\r\n    event UserRegistered(address indexed user, string name);\r\n    event ClaimSubmitted(uint256 indexed claimId, address indexed user, uint256 amount, string ticketId);\r\n    event ClaimApproved(uint256 indexed claimId);\r\n    event ClaimRejected(uint256 indexed claimId, string reason);\r\n\r\n    constructor() {\r\n        admin = msg.sender; // Assign the contract deployer as the admin\r\n    }\r\n\r\n    function registerUser(string memory _name) public {\r\n        require(bytes(_name).length > 0, \"Invalid name\");\r\n        require(users[msg.sender].wallet == address(0), \"User already registered\");\r\n        users[msg.sender] = User(_name, msg.sender);\r\n        emit UserRegistered(msg.sender, _name);\r\n    }\r\n\r\n    function submitClaim(uint256 _amount, uint256 _delayTime, string memory _ticketId) public {\r\n        require(users[msg.sender].wallet != address(0), \"User not registered\");\r\n        require(_amount > 0, \"Invalid amount\");\r\n        require(_delayTime > 0, \"Invalid delay time\");\r\n        require(bytes(_ticketId).length > 0, \"Invalid ticket ID\");\r\n\r\n        claims[claimCounter] = Claim({\r\n            claimId: claimCounter,\r\n            user: msg.sender,\r\n            amount: _amount,\r\n            isPaid: false,\r\n            delayTime: _delayTime,\r\n            status: \"Pending\",\r\n            ticketId: _ticketId\r\n        });\r\n\r\n        userClaims[msg.sender].push(claimCounter);\r\n        claimIds.push(claimCounter); // Add claim ID to the list of all claims\r\n\r\n        emit ClaimSubmitted(claimCounter, msg.sender, _amount, _ticketId);\r\n        claimCounter++;\r\n    }\r\n\r\n    function approveClaim(uint256 _claimId) public onlyAdmin {\r\n        Claim storage claim = claims[_claimId];\r\n        require(keccak256(bytes(claim.status)) == keccak256(bytes(\"Pending\")), \"Claim already processed\");\r\n        claim.isPaid = true;\r\n        claim.status = \"Approved\";\r\n        payable(claim.user).transfer(claim.amount);\r\n        emit ClaimApproved(_claimId);\r\n    }\r\n\r\n    function rejectClaim(uint256 _claimId, string memory _reason) public onlyAdmin {\r\n        Claim storage claim = claims[_claimId];\r\n        require(keccak256(bytes(claim.status)) == keccak256(bytes(\"Pending\")), \"Claim already processed\");\r\n        claim.status = \"Rejected\";\r\n        emit ClaimRejected(_claimId, _reason);\r\n    }\r\n\r\n    function getUserClaims(address _user) public view returns (uint256[] memory) {\r\n        return userClaims[_user];\r\n    }\r\n\r\n    function getAllClaimIds() public view returns (uint256[] memory) {\r\n        return claimIds;\r\n    }\r\n\r\n    function fundContract() public payable {}\r\n\r\n    // Allow contract to accept Ether directly\r\n    receive() external payable {}\r\n}\r\n",
  "sourcePath": "C:\\Users\\em\\OneDrive\\Bureau\\Block\\BlockchainProject\\DelayInsurance\\contracts\\DelayInsurance.sol",
  "compiler": {
    "name": "solc",
    "version": "0.8.0+commit.c7dfd78e.Emscripten.clang"
  },
  "schemaVersion": "3.4.16",
  "updatedAt": "2025-01-12T16:08:52.524Z",
  "networkType": "ethereum",
  "devdoc": {
    "kind": "dev",
    "methods": {},
    "version": 1
  },
  "userdoc": {
    "kind": "user",
    "methods": {},
    "version": 1
  }
}