{
  "contractName": "DelayInsurance",
  "abi": [
    {
      "anonymous": false,
      "inputs": [
        {
          "indexed": true,
          "internalType": "uint256",
          "name": "claimId",
          "type": "uint256"
        },
        {
          "indexed": true,
          "internalType": "address",
          "name": "user",
          "type": "address"
        },
        {
          "indexed": false,
          "internalType": "uint256",
          "name": "amount",
          "type": "uint256"
        }
      ],
      "name": "ClaimApproved",
      "type": "event"
    },
    {
      "anonymous": false,
      "inputs": [
        {
          "indexed": true,
          "internalType": "uint256",
          "name": "claimId",
          "type": "uint256"
        },
        {
          "indexed": true,
          "internalType": "address",
          "name": "user",
          "type": "address"
        },
        {
          "indexed": false,
          "internalType": "string",
          "name": "reason",
          "type": "string"
        }
      ],
      "name": "ClaimRejected",
      "type": "event"
    },
    {
      "anonymous": false,
      "inputs": [
        {
          "indexed": true,
          "internalType": "uint256",
          "name": "claimId",
          "type": "uint256"
        },
        {
          "indexed": true,
          "internalType": "address",
          "name": "user",
          "type": "address"
        },
        {
          "indexed": false,
          "internalType": "uint256",
          "name": "amount",
          "type": "uint256"
        }
      ],
      "name": "ClaimSubmitted",
      "type": "event"
    },
    {
      "anonymous": false,
      "inputs": [
        {
          "indexed": true,
          "internalType": "address",
          "name": "user",
          "type": "address"
        },
        {
          "indexed": false,
          "internalType": "string",
          "name": "name",
          "type": "string"
        }
      ],
      "name": "UserRegistered",
      "type": "event"
    },
    {
      "inputs": [],
      "name": "claimCounter",
      "outputs": [
        {
          "internalType": "uint256",
          "name": "",
          "type": "uint256"
        }
      ],
      "stateMutability": "view",
      "type": "function",
      "constant": true
    },
    {
      "inputs": [
        {
          "internalType": "uint256",
          "name": "",
          "type": "uint256"
        }
      ],
      "name": "claims",
      "outputs": [
        {
          "internalType": "address",
          "name": "user",
          "type": "address"
        },
        {
          "internalType": "uint256",
          "name": "amount",
          "type": "uint256"
        },
        {
          "internalType": "bool",
          "name": "isPaid",
          "type": "bool"
        },
        {
          "internalType": "uint256",
          "name": "delayTime",
          "type": "uint256"
        }
      ],
      "stateMutability": "view",
      "type": "function",
      "constant": true
    },
    {
      "inputs": [
        {
          "internalType": "address",
          "name": "",
          "type": "address"
        }
      ],
      "name": "users",
      "outputs": [
        {
          "internalType": "string",
          "name": "name",
          "type": "string"
        },
        {
          "internalType": "address",
          "name": "wallet",
          "type": "address"
        }
      ],
      "stateMutability": "view",
      "type": "function",
      "constant": true
    },
    {
      "stateMutability": "payable",
      "type": "receive",
      "payable": true
    },
    {
      "inputs": [
        {
          "internalType": "string",
          "name": "_name",
          "type": "string"
        }
      ],
      "name": "registerUser",
      "outputs": [],
      "stateMutability": "nonpayable",
      "type": "function"
    },
    {
      "inputs": [
        {
          "internalType": "uint256",
          "name": "_amount",
          "type": "uint256"
        },
        {
          "internalType": "uint256",
          "name": "_delayTime",
          "type": "uint256"
        }
      ],
      "name": "submitClaim",
      "outputs": [],
      "stateMutability": "nonpayable",
      "type": "function"
    },
    {
      "inputs": [
        {
          "internalType": "uint256",
          "name": "_claimId",
          "type": "uint256"
        }
      ],
      "name": "approveClaim",
      "outputs": [],
      "stateMutability": "nonpayable",
      "type": "function"
    },
    {
      "inputs": [
        {
          "internalType": "uint256",
          "name": "_claimId",
          "type": "uint256"
        },
        {
          "internalType": "string",
          "name": "_reason",
          "type": "string"
        }
      ],
      "name": "rejectClaim",
      "outputs": [],
      "stateMutability": "nonpayable",
      "type": "function"
    },
    {
      "inputs": [],
      "name": "fundContract",
      "outputs": [],
      "stateMutability": "payable",
      "type": "function",
      "payable": true
    },
    {
      "inputs": [],
      "name": "getContractBalance",
      "outputs": [
        {
          "internalType": "uint256",
          "name": "",
          "type": "uint256"
        }
      ],
      "stateMutability": "view",
      "type": "function",
      "constant": true
    }
  ],
  "bytecode": "0x608060405234801561001057600080fd5b506115cf806100206000396000f3fe60806040526004361061008a5760003560e01c8063704f1b9411610059578063704f1b941461013e5780639167506314610167578063a87430ba14610190578063a888c2cd146101ce578063bd097e211461020e57610091565b80633577a5ad1461009657806346e30135146100bf5780634efa8f17146100e85780636f9fb98a1461011357610091565b3661009157005b600080fd5b3480156100a257600080fd5b506100bd60048036038101906100b89190610e43565b610218565b005b3480156100cb57600080fd5b506100e660048036038101906100e19190610e1a565b6103ee565b005b3480156100f457600080fd5b506100fd610639565b60405161010a9190611330565b60405180910390f35b34801561011f57600080fd5b5061012861063f565b6040516101359190611330565b60405180910390f35b34801561014a57600080fd5b5061016560048036038101906101609190610dd9565b610647565b005b34801561017357600080fd5b5061018e60048036038101906101899190610e97565b61087c565b005b34801561019c57600080fd5b506101b760048036038101906101b29190610db0565b610b0d565b6040516101c59291906111e0565b60405180910390f35b3480156101da57600080fd5b506101f560048036038101906101f09190610e1a565b610bd9565b6040516102059493929190611179565b60405180910390f35b610216610c36565b005b6000600160008481526020019081526020016000209050600073ffffffffffffffffffffffffffffffffffffffff168160000160009054906101000a900473ffffffffffffffffffffffffffffffffffffffff1673ffffffffffffffffffffffffffffffffffffffff1614156102c3576040517f08c379a00000000000000000000000000000000000000000000000000000000081526004016102ba90611270565b60405180910390fd5b8060020160009054906101000a900460ff1615610315576040517f08c379a000000000000000000000000000000000000000000000000000000000815260040161030c90611290565b60405180910390fd5b60016000848152602001908152602001600020600080820160006101000a81549073ffffffffffffffffffffffffffffffffffffffff021916905560018201600090556002820160006101000a81549060ff0219169055600382016000905550508060000160009054906101000a900473ffffffffffffffffffffffffffffffffffffffff1673ffffffffffffffffffffffffffffffffffffffff16837f4682ef87b3db3f66192d1dc1efd5d2a314cdd9c61e14219f671c03e6f507823a846040516103e191906111be565b60405180910390a3505050565b6000600160008381526020019081526020016000209050600073ffffffffffffffffffffffffffffffffffffffff168160000160009054906101000a900473ffffffffffffffffffffffffffffffffffffffff1673ffffffffffffffffffffffffffffffffffffffff161415610499576040517f08c379a000000000000000000000000000000000000000000000000000000000815260040161049090611270565b60405180910390fd5b8060020160009054906101000a900460ff16156104eb576040517f08c379a00000000000000000000000000000000000000000000000000000000081526004016104e290611290565b60405180910390fd5b8060010154471015610532576040517f08c379a000000000000000000000000000000000000000000000000000000000815260040161052990611250565b60405180910390fd5b60018160020160006101000a81548160ff0219169083151502179055508060000160009054906101000a900473ffffffffffffffffffffffffffffffffffffffff1673ffffffffffffffffffffffffffffffffffffffff166108fc82600101549081150290604051600060405180830381858888f193505050501580156105bd573d6000803e3d6000fd5b508060000160009054906101000a900473ffffffffffffffffffffffffffffffffffffffff1673ffffffffffffffffffffffffffffffffffffffff16827f0b582d60859bb6c5e17bb049bc83044c0c8dab7d0a026b4e3a4a2966d8926de5836001015460405161062d9190611330565b60405180910390a35050565b60025481565b600047905090565b600081511161068b576040517f08c379a0000000000000000000000000000000000000000000000000000000008152600401610682906112f0565b60405180910390fd5b600073ffffffffffffffffffffffffffffffffffffffff166000803373ffffffffffffffffffffffffffffffffffffffff1673ffffffffffffffffffffffffffffffffffffffff16815260200190815260200160002060010160009054906101000a900473ffffffffffffffffffffffffffffffffffffffff1673ffffffffffffffffffffffffffffffffffffffff161461075b576040517f08c379a0000000000000000000000000000000000000000000000000000000008152600401610752906112b0565b60405180910390fd5b60405180604001604052808281526020013373ffffffffffffffffffffffffffffffffffffffff168152506000803373ffffffffffffffffffffffffffffffffffffffff1673ffffffffffffffffffffffffffffffffffffffff16815260200190815260200160002060008201518160000190805190602001906107e0929190610c7b565b5060208201518160010160006101000a81548173ffffffffffffffffffffffffffffffffffffffff021916908373ffffffffffffffffffffffffffffffffffffffff1602179055509050503373ffffffffffffffffffffffffffffffffffffffff167f48cac28ad4dc618e15f4c2dd5e97751182f166de97b25618318b2112aa951a2f8260405161087191906111be565b60405180910390a250565b600073ffffffffffffffffffffffffffffffffffffffff166000803373ffffffffffffffffffffffffffffffffffffffff1673ffffffffffffffffffffffffffffffffffffffff16815260200190815260200160002060010160009054906101000a900473ffffffffffffffffffffffffffffffffffffffff1673ffffffffffffffffffffffffffffffffffffffff16141561094d576040517f08c379a0000000000000000000000000000000000000000000000000000000008152600401610944906112d0565b60405180910390fd5b60008211610990576040517f08c379a000000000000000000000000000000000000000000000000000000000815260040161098790611230565b60405180910390fd5b600081116109d3576040517f08c379a00000000000000000000000000000000000000000000000000000000081526004016109ca90611310565b60405180910390fd5b60405180608001604052803373ffffffffffffffffffffffffffffffffffffffff1681526020018381526020016000151581526020018281525060016000600254815260200190815260200160002060008201518160000160006101000a81548173ffffffffffffffffffffffffffffffffffffffff021916908373ffffffffffffffffffffffffffffffffffffffff1602179055506020820151816001015560408201518160020160006101000a81548160ff021916908315150217905550606082015181600301559050503373ffffffffffffffffffffffffffffffffffffffff166002547f01bc0f9d4f6b0c66e2bda5f433d9760d7eb48e89b73ffea517a7ba5e4fe0657d84604051610ae99190611330565b60405180910390a360026000815480929190610b0490611484565b91905055505050565b6000602052806000526040600020600091509050806000018054610b3090611452565b80601f0160208091040260200160405190810160405280929190818152602001828054610b5c90611452565b8015610ba95780601f10610b7e57610100808354040283529160200191610ba9565b820191906000526020600020905b815481529060010190602001808311610b8c57829003601f168201915b5050505050908060010160009054906101000a900473ffffffffffffffffffffffffffffffffffffffff16905082565b60016020528060005260406000206000915090508060000160009054906101000a900473ffffffffffffffffffffffffffffffffffffffff16908060010154908060020160009054906101000a900460ff16908060030154905084565b60003411610c79576040517f08c379a0000000000000000000000000000000000000000000000000000000008152600401610c7090611210565b60405180910390fd5b565b828054610c8790611452565b90600052602060002090601f016020900481019282610ca95760008555610cf0565b82601f10610cc257805160ff1916838001178555610cf0565b82800160010185558215610cf0579182015b82811115610cef578251825591602001919060010190610cd4565b5b509050610cfd9190610d01565b5090565b5b80821115610d1a576000816000905550600101610d02565b5090565b6000610d31610d2c8461137c565b61134b565b905082815260208101848484011115610d4957600080fd5b610d54848285611410565b509392505050565b600081359050610d6b8161156b565b92915050565b600082601f830112610d8257600080fd5b8135610d92848260208601610d1e565b91505092915050565b600081359050610daa81611582565b92915050565b600060208284031215610dc257600080fd5b6000610dd084828501610d5c565b91505092915050565b600060208284031215610deb57600080fd5b600082013567ffffffffffffffff811115610e0557600080fd5b610e1184828501610d71565b91505092915050565b600060208284031215610e2c57600080fd5b6000610e3a84828501610d9b565b91505092915050565b60008060408385031215610e5657600080fd5b6000610e6485828601610d9b565b925050602083013567ffffffffffffffff811115610e8157600080fd5b610e8d85828601610d71565b9150509250929050565b60008060408385031215610eaa57600080fd5b6000610eb885828601610d9b565b9250506020610ec985828601610d9b565b9150509250929050565b610edc816113c8565b82525050565b610eeb816113da565b82525050565b6000610efc826113ac565b610f0681856113b7565b9350610f1681856020860161141f565b610f1f8161155a565b840191505092915050565b6000610f37601f836113b7565b91507f4d6f6e74616e742064652066696e616e63656d656e7420696e76616c696465006000830152602082019050919050565b6000610f776010836113b7565b91507f4d6f6e74616e7420696e76616c696465000000000000000000000000000000006000830152602082019050919050565b6000610fb7601c836113b7565b91507f536f6c646520647520636f6e7472617420696e737566666973616e74000000006000830152602082019050919050565b6000610ff76017836113b7565b91507f5265636c616d6174696f6e20696e6578697374616e74650000000000000000006000830152602082019050919050565b60006110376016836113b7565b91507f5265636c616d6174696f6e2064656a61207061796565000000000000000000006000830152602082019050919050565b6000611077601b836113b7565b91507f5574696c697361746575722064656a6120656e726567697374726500000000006000830152602082019050919050565b60006110b7601a836113b7565b91507f5574696c69736174657572206e6f6e20656e72656769737472650000000000006000830152602082019050919050565b60006110f7600c836113b7565b91507f4e6f6d20696e76616c69646500000000000000000000000000000000000000006000830152602082019050919050565b60006111376018836113b7565b91507f54656d70732064652072657461726420696e76616c69646500000000000000006000830152602082019050919050565b61117381611406565b82525050565b600060808201905061118e6000830187610ed3565b61119b602083018661116a565b6111a86040830185610ee2565b6111b5606083018461116a565b95945050505050565b600060208201905081810360008301526111d88184610ef1565b905092915050565b600060408201905081810360008301526111fa8185610ef1565b90506112096020830184610ed3565b9392505050565b6000602082019050818103600083015261122981610f2a565b9050919050565b6000602082019050818103600083015261124981610f6a565b9050919050565b6000602082019050818103600083015261126981610faa565b9050919050565b6000602082019050818103600083015261128981610fea565b9050919050565b600060208201905081810360008301526112a98161102a565b9050919050565b600060208201905081810360008301526112c98161106a565b9050919050565b600060208201905081810360008301526112e9816110aa565b9050919050565b60006020820190508181036000830152611309816110ea565b9050919050565b600060208201905081810360008301526113298161112a565b9050919050565b6000602082019050611345600083018461116a565b92915050565b6000604051905081810181811067ffffffffffffffff821117156113725761137161152b565b5b8060405250919050565b600067ffffffffffffffff8211156113975761139661152b565b5b601f19601f8301169050602081019050919050565b600081519050919050565b600082825260208201905092915050565b60006113d3826113e6565b9050919050565b60008115159050919050565b600073ffffffffffffffffffffffffffffffffffffffff82169050919050565b6000819050919050565b82818337600083830152505050565b60005b8381101561143d578082015181840152602081019050611422565b8381111561144c576000848401525b50505050565b6000600282049050600182168061146a57607f821691505b6020821081141561147e5761147d6114fc565b5b50919050565b600061148f82611406565b91507fffffffffffffffffffffffffffffffffffffffffffffffffffffffffffffffff8214156114c2576114c16114cd565b5b600182019050919050565b7f4e487b7100000000000000000000000000000000000000000000000000000000600052601160045260246000fd5b7f4e487b7100000000000000000000000000000000000000000000000000000000600052602260045260246000fd5b7f4e487b7100000000000000000000000000000000000000000000000000000000600052604160045260246000fd5b6000601f19601f8301169050919050565b611574816113c8565b811461157f57600080fd5b50565b61158b81611406565b811461159657600080fd5b5056fea264697066735822122080a66a6355008a42386807b30a55bb2d739292de02299622402cd7ba8eddaa4564736f6c63430008000033",
  "immutableReferences": {},
  "source": "// SPDX-License-Identifier: MIT\r\npragma solidity ^0.8.0;\r\n\r\ncontract DelayInsurance {\r\n    // Structure pour stocker les informations des rclamations\r\n    struct Claim {\r\n        address user;       // Adresse de l'utilisateur\r\n        uint256 amount;     // Montant rclam\r\n        bool isPaid;        // Indique si la rclamation a t paye\r\n        uint256 delayTime;  // Temps de retard en minutes\r\n    }\r\n\r\n    // Structure pour les utilisateurs\r\n    struct User {\r\n        string name;        // Nom de l'utilisateur\r\n        address wallet;     // Adresse Ethereum\r\n    }\r\n\r\n    // Mapping pour stocker les utilisateurs\r\n    mapping(address => User) public users;\r\n\r\n    // Mapping pour stocker les rclamations\r\n    mapping(uint256 => Claim) public claims;\r\n    uint256 public claimCounter; // Compteur pour les rclamations\r\n\r\n    // vnements pour suivre les actions\r\n    event UserRegistered(address indexed user, string name);\r\n    event ClaimSubmitted(uint256 indexed claimId, address indexed user, uint256 amount);\r\n    event ClaimApproved(uint256 indexed claimId, address indexed user, uint256 amount);\r\n    event ClaimRejected(uint256 indexed claimId, address indexed user, string reason);\r\n\r\n    // Fonction pour enregistrer un utilisateur\r\n    function registerUser(string memory _name) public {\r\n        require(bytes(_name).length > 0, \"Nom invalide\");\r\n        require(users[msg.sender].wallet == address(0), \"Utilisateur deja enregistre\");\r\n\r\n\r\n        users[msg.sender] = User(_name, msg.sender);\r\n        emit UserRegistered(msg.sender, _name);\r\n    }\r\n\r\n    // Fonction pour soumettre une rclamation\r\n    function submitClaim(uint256 _amount, uint256 _delayTime) public {\r\n        require(users[msg.sender].wallet != address(0), \"Utilisateur non enregistre\");\r\n        require(_amount > 0, \"Montant invalide\");\r\n        require(_delayTime > 0, \"Temps de retard invalide\");\r\n\r\n        claims[claimCounter] = Claim(msg.sender, _amount, false, _delayTime);\r\n        emit ClaimSubmitted(claimCounter, msg.sender, _amount);\r\n        claimCounter++;\r\n    }\r\n\r\n    // Fonction pour approuver une rclamation\r\n    function approveClaim(uint256 _claimId) public {\r\n        Claim storage claim = claims[_claimId];\r\n        require(claim.user != address(0), \"Reclamation inexistante\");\r\n        require(!claim.isPaid, \"Reclamation deja payee\");\r\n        require(address(this).balance >= claim.amount, \"Solde du contrat insuffisant\");\r\n\r\n        claim.isPaid = true;\r\n        payable(claim.user).transfer(claim.amount);\r\n        emit ClaimApproved(_claimId, claim.user, claim.amount);\r\n    }\r\n\r\n    // Fonction pour rejeter une rclamation (optionnel)\r\n    function rejectClaim(uint256 _claimId, string memory _reason) public {\r\n        Claim storage claim = claims[_claimId];\r\n        require(claim.user != address(0), \"Reclamation inexistante\");\r\n        require(!claim.isPaid, \"Reclamation deja payee\");\r\n\r\n        delete claims[_claimId];\r\n        emit ClaimRejected(_claimId, claim.user, _reason);\r\n    }\r\n\r\n    // Fonction pour dposer des fonds dans le contrat\r\n    function fundContract() public payable {\r\n        require(msg.value > 0, \"Montant de financement invalide\");\r\n    }\r\n\r\n    // Fonction pour vrifier le solde du contrat\r\n    function getContractBalance() public view returns (uint256) {\r\n        return address(this).balance;\r\n    }\r\n\r\n    // Fonction pour recevoir des fonds (fallback)\r\n    receive() external payable {}\r\n}\r\n",
  "sourcePath": "C:\\Users\\HP\\DelayInsurance\\contracts\\DelayInsurance.sol",
  "compiler": {
    "name": "solc",
    "version": "0.8.0+commit.c7dfd78e.Emscripten.clang"
  },
  "schemaVersion": "3.4.16",
  "updatedAt": "2024-12-22T14:08:06.132Z",
  "networkType": "ethereum",
  "devdoc": {
    "kind": "dev",
    "methods": {},
    "version": 1
  },
  "userdoc": {
    "kind": "user",
    "methods": {},
    "version": 1
  }
}